:2000000030084200310303003017FF003018FF0030341A00303703003108010036303600E4
:2000200036310E003632E200363312003621E0003704A00037035A003715780037170100CD
:20004000370B600037051A00390502003906100039010A00373112003600080036013300B3
:20006000302D600036205200371B2000471C50003A1343003A1800003A197C0036351300C7
:200080003636030036344000362201005060DE003C0134003C0428003C0598003C0600006C
:2000A0003C0707003C0800003C091C003C0A9C003C0B4000381000003811100038120000FD
:2000C000370864004001020040051A00300000003004FF00300E5800302E00004300000041
:2000E000501F0500440E00005000A7003A0F30003A1028003A1B30003A1E26003A116000AA
:200100003A1F1400580023005801140058020F0058030F00580412005805260058060C005C
:20012000580708005808050058090500580A0800580B0D00580C0800580D0300580E000079
:20014000580F00005810030058110900581207005813030058140000581501005816030031
:200160005817080058180D0058190800581A0500581B0600581C0800581D0E00581E290084
:20018000581F170058201100582111005822150058232800582446005825260058260800A1
:2001A000582726005828640058292600582A2400582B2200582C2400582D2400582E0600E7
:2001C000582F22005830400058314200583224005833260058342400583522005836220075
:2001E000583726005838440058392400583A2600583B2800583C4200583DCE005180FF0045
:200200005181F20051820000518314005184250051852400518609005187090051880900C8
:2002200051897500518A5400518BE000518CB200518D4200518E3D00518F5600519046005C
:200240005191F80051920400519370005194F0005195F0005196030051970100519804001E
:2002600051991200519A0400519B0000519C0600519D8200519E380054800100548108006B
:20028000548214005483280054845100548565005486710054877D0054888700548991009A
:2002A000548A9A00548BAA00548CB800548DCD00548EDD00548FEA0054901D0053811E0078
:2002C00053825B005383080053840A0053857E005386880053877C0053886C0053891000EF
:2002E000538A0100538B980055800600558340005584100055891000558A0000558BF80029
:20030000501D4000530008005301300053021000530300005304080053053000530608004E
:200320005307160053090800530A3000530B0400530C0600502500003008020000000000E6
:2004000030357100303669003C070700382040003821060038141100381511003800000003
:2004200038010000380200003803000038040A0038053F003806070038079F0038080A00DF
:2004400038092000380A0700380B9800380C0B00380D1C00380E0700380FB00038130400D4
:200460003618040036122B0037091200370C00004004060030021C003006C3004713020035
:2004800044070C00460B3700460C200048372C003824010050018300350300003820460059
:00000001FF
